{
  "contractName": "TicTac",
  "abi": [
    {
      "constant": true,
      "inputs": [],
      "name": "getBoardPositions",
      "outputs": [
        {
          "name": "",
          "type": "address[]"
        }
      ],
      "payable": false,
      "stateMutability": "view",
      "type": "function"
    },
    {
      "constant": true,
      "inputs": [],
      "name": "getBoardState",
      "outputs": [
        {
          "name": "",
          "type": "uint8"
        }
      ],
      "payable": false,
      "stateMutability": "view",
      "type": "function"
    },
    {
      "constant": false,
      "inputs": [],
      "name": "resetBoard",
      "outputs": [],
      "payable": false,
      "stateMutability": "nonpayable",
      "type": "function"
    },
    {
      "constant": false,
      "inputs": [],
      "name": "startNewGame",
      "outputs": [],
      "payable": false,
      "stateMutability": "nonpayable",
      "type": "function"
    },
    {
      "constant": true,
      "inputs": [],
      "name": "getGameState",
      "outputs": [
        {
          "name": "",
          "type": "uint8"
        }
      ],
      "payable": false,
      "stateMutability": "view",
      "type": "function"
    },
    {
      "constant": true,
      "inputs": [],
      "name": "boardOne",
      "outputs": [
        {
          "name": "stateOfBoard",
          "type": "uint8"
        },
        {
          "name": "player1",
          "type": "address"
        },
        {
          "name": "player2",
          "type": "address"
        },
        {
          "name": "nextMove",
          "type": "address"
        },
        {
          "name": "numberOfMoves",
          "type": "uint256"
        },
        {
          "name": "stateOfGame",
          "type": "uint8"
        }
      ],
      "payable": false,
      "stateMutability": "view",
      "type": "function"
    },
    {
      "constant": false,
      "inputs": [
        {
          "name": "_row",
          "type": "uint256"
        },
        {
          "name": "_col",
          "type": "uint256"
        }
      ],
      "name": "makeAMove",
      "outputs": [],
      "payable": false,
      "stateMutability": "nonpayable",
      "type": "function"
    },
    {
      "constant": false,
      "inputs": [],
      "name": "joinGame",
      "outputs": [],
      "payable": false,
      "stateMutability": "nonpayable",
      "type": "function"
    },
    {
      "constant": true,
      "inputs": [],
      "name": "getNextPlayer",
      "outputs": [
        {
          "name": "",
          "type": "address"
        }
      ],
      "payable": false,
      "stateMutability": "view",
      "type": "function"
    },
    {
      "inputs": [],
      "payable": false,
      "stateMutability": "nonpayable",
      "type": "constructor"
    }
  ],
  "bytecode": "0x6060604052341561000f57600080fd5b336000806101000a81548173ffffffffffffffffffffffffffffffffffffffff021916908373ffffffffffffffffffffffffffffffffffffffff1602179055506111198061005e6000396000f300606060405260043610610099576000357c0100000000000000000000000000000000000000000000000000000000900463ffffffff1680630112ed7a1461009e5780632420f7f014610108578063455a29391461013f578063482d51e014610154578063b7d0628b14610169578063bc1e50f6146101a0578063d00eb7351461028c578063d4f77b1c146102b8578063fe721e68146102cd575b600080fd5b34156100a957600080fd5b6100b1610322565b6040518080602001828103825283818151815260200191508051906020019060200280838360005b838110156100f45780820151818401526020810190506100d9565b505050509050019250505060405180910390f35b341561011357600080fd5b61011b610437565b6040518082600281111561012b57fe5b60ff16815260200191505060405180910390f35b341561014a57600080fd5b610152610451565b005b341561015f57600080fd5b610167610558565b005b341561017457600080fd5b61017c6106b3565b6040518082600481111561018c57fe5b60ff16815260200191505060405180910390f35b34156101ab57600080fd5b6101b36106cd565b604051808760028111156101c357fe5b60ff1681526020018673ffffffffffffffffffffffffffffffffffffffff1673ffffffffffffffffffffffffffffffffffffffff1681526020018573ffffffffffffffffffffffffffffffffffffffff1673ffffffffffffffffffffffffffffffffffffffff1681526020018473ffffffffffffffffffffffffffffffffffffffff1673ffffffffffffffffffffffffffffffffffffffff16815260200183815260200182600481111561027357fe5b60ff168152602001965050505050505060405180910390f35b341561029757600080fd5b6102b66004808035906020019091908035906020019091905050610771565b005b34156102c357600080fd5b6102cb610c77565b005b34156102d857600080fd5b6102e0610e7a565b604051808273ffffffffffffffffffffffffffffffffffffffff1673ffffffffffffffffffffffffffffffffffffffff16815260200191505060405180910390f35b61032a6110d9565b6103326110d9565b600080600060096040518059106103465750595b9080825280602002602001820160405250935060009250600091505b600382101561042d57600090505b60038110156104205760016005016000838152602001908152602001600020600082815260200190815260200160002060009054906101000a900473ffffffffffffffffffffffffffffffffffffffff1684848151811015156103cf57fe5b9060200190602002019073ffffffffffffffffffffffffffffffffffffffff16908173ffffffffffffffffffffffffffffffffffffffff168152505082806001019350508080600101915050610370565b8180600101925050610362565b8394505050505090565b6000600160000160009054906101000a900460ff16905090565b6000809054906101000a900473ffffffffffffffffffffffffffffffffffffffff1673ffffffffffffffffffffffffffffffffffffffff163373ffffffffffffffffffffffffffffffffffffffff161415156104ac57600080fd5b6001600080820160006101000a81549060ff02191690556000820160016101000a81549073ffffffffffffffffffffffffffffffffffffffff02191690556001820160006101000a81549073ffffffffffffffffffffffffffffffffffffffff02191690556002820160006101000a81549073ffffffffffffffffffffffffffffffffffffffff021916905560038201600090556004820160006101000a81549060ff02191690555050565b600160000160019054906101000a900473ffffffffffffffffffffffffffffffffffffffff1673ffffffffffffffffffffffffffffffffffffffff163373ffffffffffffffffffffffffffffffffffffffff16148061060657506001800160009054906101000a900473ffffffffffffffffffffffffffffffffffffffff1673ffffffffffffffffffffffffffffffffffffffff163373ffffffffffffffffffffffffffffffffffffffff16145b151561061157600080fd5b60028081111561061d57fe5b600160000160009054906101000a900460ff16600281111561063b57fe5b14151561064757600080fd5b33600160020160006101000a81548173ffffffffffffffffffffffffffffffffffffffff021916908373ffffffffffffffffffffffffffffffffffffffff16021790555060018060040160006101000a81548160ff021916908360048111156106ac57fe5b0217905550565b6000600160040160009054906101000a900460ff16905090565b60018060000160009054906101000a900460ff16908060000160019054906101000a900473ffffffffffffffffffffffffffffffffffffffff16908060010160009054906101000a900473ffffffffffffffffffffffffffffffffffffffff16908060020160009054906101000a900473ffffffffffffffffffffffffffffffffffffffff16908060030154908060040160009054906101000a900460ff16905086565b6000600160000160019054906101000a900473ffffffffffffffffffffffffffffffffffffffff1673ffffffffffffffffffffffffffffffffffffffff163373ffffffffffffffffffffffffffffffffffffffff16148061082157506001800160009054906101000a900473ffffffffffffffffffffffffffffffffffffffff1673ffffffffffffffffffffffffffffffffffffffff163373ffffffffffffffffffffffffffffffffffffffff16145b151561082c57600080fd5b60028081111561083857fe5b600160000160009054906101000a900460ff16600281111561085657fe5b14151561086257600080fd5b600160020160009054906101000a900473ffffffffffffffffffffffffffffffffffffffff1673ffffffffffffffffffffffffffffffffffffffff163373ffffffffffffffffffffffffffffffffffffffff161415156108c157600080fd5b600283111580156108d3575060008310155b80156108e0575060028211155b80156108ed575060008210155b15156108f857600080fd5b6001600481111561090557fe5b600160040160009054906101000a900460ff16600481111561092357fe5b14151561092f57600080fd5b8073ffffffffffffffffffffffffffffffffffffffff1660016005016000858152602001908152602001600020600084815260200190815260200160002060009054906101000a900473ffffffffffffffffffffffffffffffffffffffff1673ffffffffffffffffffffffffffffffffffffffff161415156109b057600080fd5b3360016005016000858152602001908152602001600020600084815260200190815260200160002060006101000a81548173ffffffffffffffffffffffffffffffffffffffff021916908373ffffffffffffffffffffffffffffffffffffffff160217905550600160030160008154809291906001019190505550610a3433610ea7565b15610ae757600160000160019054906101000a900473ffffffffffffffffffffffffffffffffffffffff1673ffffffffffffffffffffffffffffffffffffffff163373ffffffffffffffffffffffffffffffffffffffff161415610abe576003600160040160006101000a81548160ff02191690836004811115610ab457fe5b0217905550610ae6565b6004600160040160006101000a81548160ff02191690836004811115610ae057fe5b02179055505b5b600160000160019054906101000a900473ffffffffffffffffffffffffffffffffffffffff1673ffffffffffffffffffffffffffffffffffffffff16600160020160009054906101000a900473ffffffffffffffffffffffffffffffffffffffff1673ffffffffffffffffffffffffffffffffffffffff161415610bd2576001800160009054906101000a900473ffffffffffffffffffffffffffffffffffffffff16600160020160006101000a81548173ffffffffffffffffffffffffffffffffffffffff021916908373ffffffffffffffffffffffffffffffffffffffff160217905550610c3c565b600160000160019054906101000a900473ffffffffffffffffffffffffffffffffffffffff16600160020160006101000a81548173ffffffffffffffffffffffffffffffffffffffff021916908373ffffffffffffffffffffffffffffffffffffffff1602179055505b60096001600301541415610c72576002600160040160006101000a81548160ff02191690836004811115610c6c57fe5b02179055505b505050565b600280811115610c8357fe5b600160000160009054906101000a900460ff166002811115610ca157fe5b14151515610cae57600080fd5b600160000160019054906101000a900473ffffffffffffffffffffffffffffffffffffffff1673ffffffffffffffffffffffffffffffffffffffff163373ffffffffffffffffffffffffffffffffffffffff1614151515610d0e57600080fd5b6001800160009054906101000a900473ffffffffffffffffffffffffffffffffffffffff1673ffffffffffffffffffffffffffffffffffffffff163373ffffffffffffffffffffffffffffffffffffffff1614151515610d6d57600080fd5b60006002811115610d7a57fe5b600160000160009054906101000a900460ff166002811115610d9857fe5b1415610e0d5733600160000160016101000a81548173ffffffffffffffffffffffffffffffffffffffff021916908373ffffffffffffffffffffffffffffffffffffffff16021790555060018060000160006101000a81548160ff02191690836002811115610e0357fe5b0217905550610e78565b336001800160006101000a81548173ffffffffffffffffffffffffffffffffffffffff021916908373ffffffffffffffffffffffffffffffffffffffff1602179055506002600160000160006101000a81548160ff02191690836002811115610e7257fe5b02179055505b565b6000600160020160009054906101000a900473ffffffffffffffffffffffffffffffffffffffff16905090565b600080610ebf60006001600260006001600289610f47565b80610eda5750610ed9600060016002806001600089610f47565b5b15610ee85760019150610f41565b600090505b6003811015610f3c57610f0881828360006001600289610f47565b80610f215750610f2060006001600284858689610f47565b5b15610f2f5760019150610f41565b8080600101915050610eed565b600091505b50919050565b60008173ffffffffffffffffffffffffffffffffffffffff16600160050160008a8152602001908152602001600020600087815260200190815260200160002060009054906101000a900473ffffffffffffffffffffffffffffffffffffffff1673ffffffffffffffffffffffffffffffffffffffff1614801561103d57508173ffffffffffffffffffffffffffffffffffffffff1660016005016000898152602001908152602001600020600086815260200190815260200160002060009054906101000a900473ffffffffffffffffffffffffffffffffffffffff1673ffffffffffffffffffffffffffffffffffffffff16145b80156110bb57508173ffffffffffffffffffffffffffffffffffffffff1660016005016000888152602001908152602001600020600085815260200190815260200160002060009054906101000a900473ffffffffffffffffffffffffffffffffffffffff1673ffffffffffffffffffffffffffffffffffffffff16145b156110c957600190506110ce565b600090505b979650505050505050565b6020604051908101604052806000815250905600a165627a7a72305820253c94efc0dec89e67e931723afe5d041c639ec7adcf3e98470034e528d2d34e0029",
  "source": "pragma solidity^0.4.18;\r\n\r\ncontract TicTac {\r\n    address ticTacAdmin;\r\n    function TicTac() public {\r\n        ticTacAdmin = msg.sender;\r\n    }\r\n\r\n    //The board can be in 3 states\r\n    //--empty (no player is in it)\r\n    //--playerWaiting (player one has joined)\r\n    //--occupied (both players have joined and game is in progress)\r\n    enum BoardState {empty, playerWaiting, occupied}\r\n\r\n    //The game can be in 5 states\r\n    enum GameState {notStarted, running, tied, playerOneWon, playerTwoWon}\r\n\r\n    //This is the Board data structure\r\n    struct Board {\r\n        BoardState stateOfBoard;\r\n        address player1;    //address of player one\r\n        address player2;    //address of player two\r\n        address nextMove;   //address of player who will legally have the next move\r\n        uint numberOfMoves;\r\n\r\n        GameState stateOfGame;\r\n        //a 3x3 representation of the board with a mapping to which player is occupying which box\r\n        mapping(uint => mapping(uint => address)) boardPositions;\r\n    }\r\n\r\n    Board public boardOne;\r\n\r\n    //players call this method to join the game\r\n    function joinGame() public {\r\n        require(boardOne.stateOfBoard != BoardState.occupied); //board should have place for the player\r\n        require(msg.sender != boardOne.player1);        //same player can not join the board as both players\r\n        require(msg.sender != boardOne.player2);        \r\n\r\n        if (boardOne.stateOfBoard == BoardState.empty) {       //If board is empty, player joins as player one\r\n            boardOne.player1 = msg.sender;\r\n            boardOne.stateOfBoard = BoardState.playerWaiting;  //state of board is updated to playerWaiting\r\n        } else {\r\n            boardOne.player2 = msg.sender;              //If board has playerWaiting, new player joins as player 2\r\n            boardOne.stateOfBoard = BoardState.occupied;\r\n        }\r\n    }\r\n\r\n    //When board is occupied, the player who initiates this method gets the first move.\r\n    function startNewGame() public onlyPlayers {\r\n        require(boardOne.stateOfBoard == BoardState.occupied);\r\n        boardOne.nextMove = msg.sender;\r\n        boardOne.stateOfGame = GameState.running;\r\n    }\r\n\r\n    //Players provide the row and column of the box they want to make the move in\r\n    function makeAMove(uint _row, uint _col) public onlyPlayers {\r\n        require(boardOne.stateOfBoard == BoardState.occupied);              //board should be occupied\r\n        require(msg.sender == boardOne.nextMove);                           //the player invoking this method should have the legal next move\r\n        require(_row<=2 && _row>=0 && _col<=2 && _col>=0);                  //the box provided should not be out of bounds \r\n        require(boardOne.stateOfGame == GameState.running);                 //the game should be running\r\n        address defaultAddress;\r\n        require(boardOne.boardPositions[_row][_col] == defaultAddress);     //the box provided should be empty (hence the defaultAddress)\r\n\r\n        boardOne.boardPositions[_row][_col] = msg.sender;\r\n        boardOne.numberOfMoves++;\r\n\r\n        if (didIWin(msg.sender)) {\r\n            if (msg.sender == boardOne.player1) {\r\n                boardOne.stateOfGame = GameState.playerOneWon;\r\n            }else {\r\n                boardOne.stateOfGame = GameState.playerTwoWon;\r\n            }\r\n        }\r\n\r\n        if (boardOne.nextMove == boardOne.player1) {                        //nextMove is assigned to the other player\r\n            boardOne.nextMove = boardOne.player2;\r\n        }else {\r\n            boardOne.nextMove = boardOne.player1;\r\n        }\r\n        if (boardOne.numberOfMoves == 9 ) {                                 //if 9 moves have been made and no one has one, game is tied\r\n            boardOne.stateOfGame = GameState.tied;\r\n        }\r\n    }\r\n\r\n    function didIWin(address _player) internal view returns(bool) {\r\n        if (isItAScore(0, 1, 2, 0, 1, 2, _player) || isItAScore(0, 1, 2, 2, 1, 0, _player)) {\r\n            return true;\r\n        }\r\n        for (uint i = 0; i < 3; i++) {\r\n            if (isItAScore(i, i, i, 0, 1, 2, _player) || isItAScore(0, 1, 2, i, i, i, _player)) {\r\n                return true;\r\n            } \r\n        }\r\n        return false;\r\n    }\r\n\r\n    function isItAScore(uint _r1, uint _r2, uint _r3, uint _c1, uint _c2, uint _c3, address _player) internal view returns(bool) {\r\n        if (boardOne.boardPositions[_r1][_c1] == _player && boardOne.boardPositions[_r2][_c2] == _player && boardOne.boardPositions[_r3][_c3] == _player) {\r\n            return true;\r\n        } else {\r\n            return false;\r\n        }\r\n    }\r\n\r\n    function getBoardPositions () public view returns (address[]) {\r\n        address[] memory boardState = new address[](9);\r\n        uint counter = 0;\r\n        for (uint i = 0; i < 3; i++) {\r\n            for (uint j = 0; j < 3; j++) {\r\n                boardState[counter] = boardOne.boardPositions[i][j];\r\n                counter++;\r\n            }\r\n        }\r\n        return (boardState);\r\n    }\r\n\r\n    function getBoardState () public view returns (BoardState) {\r\n        return(boardOne.stateOfBoard);\r\n    }\r\n\r\n    function getGameState () public view returns (GameState) {\r\n        return(boardOne.stateOfGame);\r\n    }\r\n\r\n    function getNextPlayer () public view returns (address) {\r\n        return(boardOne.nextMove);\r\n    }\r\n\r\n    function resetBoard () public onlyAdmin {\r\n        delete boardOne;\r\n    } \r\n\r\n    modifier onlyPlayers() {\r\n        require(msg.sender == boardOne.player1 || msg.sender == boardOne.player2);\r\n        _;\r\n    }\r\n\r\n    modifier onlyAdmin() {\r\n        require(msg.sender == ticTacAdmin);\r\n        _;\r\n    }\r\n}",
  "sourcePath": "F:\\DAPP_Dev\\ticTacTest\\contracts\\TicTac.sol",
  "compiler": {
    "name": "solc",
    "version": "0.4.18+commit.9cf6e910.Emscripten.clang"
  },
  "schemaVersion": "1.0.1",
  "updatedAt": "2018-04-01T12:58:55.013Z"
}